:020000040800F2
:100000000007002065210008412000084320000867
:100010004520000847200008492000080000000093
:100020000000000000000000000000004B2000085D
:100030004D200008000000004F200008512000085B
:100040007D21000881210008852100088921000800
:100050008D210008912100085520000895210008F5
:10006000992100089D210008A1210008A521000870
:10007000A9210008AD210008B1210008B521000820
:10008000B9210008BD210008C12100085B2000083B
:100090005D200008C5210008C9210008CD21000805
:1000A000D1210008D5210008D9210008DD21000850
:1000B000E1210008E5210008E9210008ED21000800
:1000C000F1210008F5210008F9210008FD210008B0
:1000D0000122000865200008052200080922000806
:1000E0000D2200081122000815220008192200081C
:1000F0001D220008212200082522000829220008CC
:100100002D2200083122000835220008392200087B
:100110003D2200084122000845220008492200082B
:100120004D220008512200085522000859220008DB
:100130005D2200086122000865220008692200088B
:100140006D2200087122000875220008792200083B
:100150007D220008812200088522000889220008EB
:100160008D2200089122000895220008992200089B
:100170009D220008A1220008A5220008000000001E
:10018000A9220008AD22000810B5DFF84045DFF8CD
:100190004005234604F17802002100F0AAFC012169
:1001A000217610BD012800D0704710B5DFF81C453E
:1001B0008E20FF212074617404F1940304F1100275
:1001C00000F043F808B100F098FA04F5FE7104F16C
:1001D0001C00BDE81040642200F04FBE10B5DFF8EF
:1001E000EC440068E36998422ED100F014FA012132
:1001F000617604F1940304F1080200F026F808B1D6
:1002000000F07BFA207A8E281ED1627AA17ADFF87C
:10021000C404012A02D0022A0AD010BD012908BF55
:100220004FF480510CD079B900224FF4805107E08F
:10023000012908BF012201D031B900224FF4005139
:10024000BDE8104001F0CBB910BD04F16001DFF84A
:10025000800400F0E3BB38B5DFF870446178012911
:1002600004F5C67502D002290AD031BD00F069F844
:1002700000F06AF800F065F8A07801280CD00FE0D3
:1002800000F05FF80F2204F5B87100F060F800F09C
:1002900058F8A078012803D1092204F5C07102E0C2
:1002A00038B90A22294604F11C00BDE8384000F0A4
:1002B000E4BD31BDF8B5DFF81444DFF81874617897
:1002C000012904F5C67504F5C07602D0022913D0C1
:1002D000F1BD00F036F800F037F800F032F8A07801
:1002E000012803D101224FF4805114E0002827D1C6
:1002F00000224FF4805118E000F023F80F2204F59B
:10030000B87100F024F800F01CF8A078012808D19A
:1003100001224FF40051384601F061F909223146BB
:1003200008E068B900224FF40051384601F057F94F
:100330000A22294604F11C00BDE8F84000F09DBDEA
:10034000F1BDC82001F070B90F2204F5B07104F1BD
:100350001C0000F092BD00002DE9F84FDFF86C435F
:10036000DFF870538E202066082100202167A066E8
:10037000E0668AB001F06CF900F05AF900F0B8F9C3
:100380000020009043F20106DFF84C03016841F0C1
:1003900080010160026802F0800200920022009950
:1003A0000092036843F001030360016801F001015A
:1003B000009100990092036843F00803036001680C
:1003C00001F008010091009900923146036843F062
:1003D00002030360006800F00200009000982846C5
:1003E00001F0FDF801204FF48811019002910022E4
:1003F000039201A9B94801F007F8012102910022F6
:1004000003920492019601A9284600F0FDFF002204
:100410000021062001F050F9062001F06AF91521AB
:10042000AB4DAF486960286000224FF48031AA606C
:10043000EA6029616A61AA61AA83284600F0C8F9C6
:1004400008B100F05AF9002205920492009201923C
:1004500002920392069201210891079114220992B7
:100460006946284600F030FA08B100F046F99D4888
:10047000E0614FF4E131216200206062A062E0623D
:100480000C216063A063216304F11C0000F0B8FC40
:1004900008B100F032F9284600F07FFA0221284620
:1004A00000F0A3FB00F0B7F80FF2BC250FF29C267A
:1004B0009FA70FF270280FF260290FF2502A0FF257
:1004C000402B06E0642204F51871FFF740FF00207E
:1004D0002076607E012842D1642204F1FC01FFF7FE
:1004E00036FFFFF72EFF207A7E2802D16846594654
:1004F0000DE08E2802D16846514608E09E2802D1C0
:100500006846494603E06E2806D1684641460922FE
:1005100001F01AF900F086F8642001F085F8607A9D
:10052000012803D10F2204F5B07104E0022804D1A0
:100530000F2204F5B871FFF70AFF642001F074F888
:10054000A07A012803D1092204F5C07103E020B983
:100550000A2204F5C671FFF7FAFE00206076207EBD
:100560000128B6D16078FF2844D0A06F8E2802D130
:10057000684639460DE09E2802D16846314608E0BB
:100580007E2802D16846294603E06E2807D16846D6
:100590007CA11A2201F0D8F81A2200F044F8FFF7E3
:1005A000D0FE20787E2803D14FEA0D007CA116E012
:1005B0008E280AD14FEA0D007CA1092201F0C4F86F
:1005C00000F030F8FFF776FE10E06E2802D16846A2
:1005D00079A104E09E2809D14FEA0D0079A10922F2
:1005E00001F0B2F800F01EF8FFF735FE642001F0CC
:1005F0001BF86CE720786E283FF464AF7E2802D0A9
:100600009E2804D063E7642204F5CC715DE7642280
:1006100004F1980159E7032204F1080104F11C00D8
:1006200000F04CBC0922694604F11C0000F025BC16
:1006300080B592B03022002106A801F091F800F0B8
:1006400057F8002000904FF480332748016841F0AC
:10065000805101600021006800F0805000900098F7
:1006600022480091026842F4804202600122006840
:1006700000F48040009006A80099069202214FF4F1
:1006800080020C910D920421A8220E910F9202215A
:10069000042207931091119201F06CF808B100F058
:1006A0002CF802210291002203920F204FF4A05156
:1006B000019004914FF480520592052101A801F0A8
:1006C000E9F908B100F019F813B000BD00000020EE
:1006D000D4020020000C02403038024000000240EA
:1006E00000640040001001404038024000700040AB
:1006F0001422002101A801F033B872B6FEE7000011
:10070000426F61726420310A00000000426F617222
:100710006420320A00000000426F61726420330AD4
:1007200000000000426F61726420340A0000000083
:10073000426F61726420322073656E64732072654B
:10074000717565737420746F20000000426F6172D0
:100750006420332073656E647320726571756573F0
:100760007420746F20000000426F61726420312099
:1007700073656E6473207265717565737420746F30
:1007800020000000426F61726420342073656E6443
:1007900073207265717565737420746F200000009A
:1007A000426F61726420310A00000000426F617282
:1007B0006420320A00000000426F61726420340A33
:1007C00000000000426F61726420330A00000000E4
:1007D00038B5040022D094F8200010B9204601F06A
:1007E00019FA00F00FF9054620684168C80705D4DA
:1007F00001F08AFA401B0B28F6D30DE000F0FBF85D
:1008000001F082FA054620684168880708D501F0A2
:100810007BFA401B0B28F6D300F0E5F8012032BD2F
:10082000207E012806D1216808680A4640F0800031
:10083000106005E020680168024621F08001116027
:10084000607E00F03DF80CBF41F0400121F0400116
:100850000160A07E00F034F80CBF41F0200121F0CF
:1008600020010160E07E00F02BF80CBF21F01001A8
:1008700041F010010160207F00F022F80CBF41F030
:10088000080121F008010160607F00F019F80CBF39
:1008900041F0040121F004010160A268E0682169CF
:1008A000024360690A43616802432068491E0A43A3
:1008B000C26100216162012084F82000002032BD65
:1008C0000128206801687047F0B590F82020012ABF
:1008D00018BF022A54D14F4A106840F0010010603E
:1008E000136823F47C53136010684B6A40EA0320BA
:1008F000106001200B7D03F01F0300FA03F3D069A1
:10090000DC432040D061444800F5117500F51076B5
:10091000C86958B9D0682040D060CF6800F034F87A
:100920000F68C7EA004C486945F830C0C86901281B
:100930000BD1D0681843D0600F6800F025F8CE685E
:100940004F69C6EA004045F83700886900285068BA
:100950000CBF20401843506008690028506907BF49
:100960000440546118435061086A012802D1D069DB
:100970000343D36100201168490849001160F0BDAC
:10098000416A41F48021ABE04868D1F814C0C0EA64
:10099000074746F83C708868704738B5044694F8B5
:1009A0002000012819D1022184F820102068026853
:1009B00052085200026001F0A7F90546206841681C
:1009C000C80707D501F0A0F9401B0B28F6D300F0AB
:1009D0000AF806E00020606232BD606A40F4002040
:1009E0006062012032BD606A40F40030606205211F
:1009F00084F82010704720680168024621F0020147
:100A0000116070472068016841F00101016001F048
:100A10007BB900000066004000640040F0B590F82B
:100A200020400568AD68012C18BF022C55D115F087
:100A3000E05F4ED0C5F30164032C03D3416A41F457
:100A400000014DE00125A5401D6024010368CE682A
:100A500003F5C0758B681BB90B6846EA435603E083
:100A60004F6843EAC7031E432E5105680B6905F51D
:100A7000C2763351097D012906D1036803F5C2719D
:100A80000D5945F480750D519379D17955791B0431
:100A900043EA0163117943EA0523056825440B43C2
:100AA000C5F88C319378D17855781B0443EA0163FB
:100AB0001178026843EA052322440B43C2F88831C7
:100AC000006800F5C070015941F00101015100209A
:100AD000F0BD416A41F4001102E0416A41F4802115
:100AE00041620120F0BD416A41F480214162012050
:100AF0007047F0B590F82040012C18BF022C66D149
:100B00000029046801D1E56800E0256915F0030FAC
:100B100003D1416A41F400115CE00D0104F5D8767F
:100B2000745914F004049460066806F5D87603D16D
:100B30007459640D146002E07659F6085660046832
:100B400004F5D876775907F00207D76000F043F82C
:100B500006F00F06166100F03EF8C6F30724946114
:100B600000F039F8360C566102682A44D2F8B841D0
:100B70001C7006682E44D6F8B821120A5A70046810
:100B80002C44D4F8B821120C9A7004682C44D4F880
:100B9000B821120EDA7000F023F81A7100F020F874
:100BA000120A5A7100F01CF8120C9A7100F018F831
:100BB000120EDA71006821B9C16841F02001C160EC
:100BC00003E0016941F0200101610020F0BD416AAC
:100BD00041F4802184E704682C44D4F8B461704760
:100BE00004682C44D4F8BC21704790F82020012AD6
:100BF00018BF022A03D100684269114300E072E77E
:100C00004161002070472DE9F84F05464FF000087C
:100C100028684669D0F804B08468D0F80C90D0F801
:100C200010A08769F10745D5E20713D5012181603E
:100C3000A00703D5284601F06DF80BE0600748BF18
:100C40004FF4006806D420074EBF4FF48058284662
:100C500001F061F8E00515D52A684FF48071A00510
:100C6000916003D5284601F057F80BE0600548BFB6
:100C700048F4005806D420054EBF48F48048284662
:100C800001F04BF8E00315D52A684FF48031A0033A
:100C9000916003D5284601F041F80BE0600348BF9E
:100CA00048F4004806D420034EBF48F48038284654
:100CB00001F035F8300748BF5FEAC96104D52968FB
:100CC000102048F40078C860700748BF5FEA0971D7
:100CD00005D508202A68D060284601F021F8B00721
:100CE00007D52968C86810F0030F1CBF2846FFF716
:100CF0004BFA700648BF5FEACA6104D52968102024
:100D000048F480680861B00648BF5FEA0A7105D5FB
:100D100008202A681061284601F003F8F00607D57C
:100D20002968086910F0030F1CBF284600F0FAFF7D
:100D3000B00348BF5FEACB6105D52A681020506038
:100D4000284600F0F0FFF00348BF5FEA0B7105D5BD
:100D50002A6808205060284600F0E6FF300440D59D
:100D60005FEA4B713AD5F00503D5F90748BF48F063
:100D70000108B00503D5B90748BF48F0020870055F
:100D800003D5790748BF48F00408300526D517F089
:100D9000700F23D007F07007102F0CD0202F0DD02C
:100DA000302F0ED0402F0FD0502F10D0602F08BF03
:100DB00048F480780DE048F008080AE048F0100890
:100DC00007E048F0200804E048F0400801E048F05F
:100DD00080082868816921F07001816104202968F8
:100DE0004860B8F1000F09D0686A48EA0008C5F801
:100DF00024802846BDE8F24F00F097BFBDE8F18F90
:100E000038B5040001D1012032BD00F019F808B94D
:100E100000F01AF800F01DF800F025F8FFE7416136
:100E200000F001F832BD2068C16841F40051C16092
:100E300000206860202169702020A8700020704781
:100E400004F13C056878704700212970204600F0C5
:100E50000FBF242068702068C16821F40051C16070
:100E6000204600F06CBA2068016921F490410161CC
:100E70002068416921F02A01704710B500F13C0358
:100E80005C78202C18D109B1140001D1012010BDCB
:100E90001C78012C10D001241C7001628284C28451
:100EA0000021596021225A7019700068C26842F00E
:100EB0008002C260002010BD022010BD38B500F1D4
:100EC00030039C7B202C0FD109B1140001D10120EB
:100ED00032BD1C7B012C07D001241C7300251D6032
:100EE000BDE8384000F06BB9022032BD45E8003063
:100EF00000287047216801F1140252E8001F2068A1
:100F000000F1140321F0400143E80010002870476D
:100F1000F8B5044625682A6828460146C6684B6924
:100F200012F00F0F02F0200106F0200007D1002977
:100F300018BF00285DD02046BDE8F24094E1DF07ED
:100F400002D416F4907F54D0D50705D5F60503D505
:100F5000256C45F001052564550705D5DE0703D549
:100F6000256C45F002052564950705D5DE0703D5F8
:100F7000256C45F004052564120706D508B9DA0783
:100F800003D5236C43F008032364226C002A2FD07E
:100F900000291EBF0028204600F066F9206840693D
:100FA000216C0A0701D440061DD5204600F030F917
:100FB00020684169480611D5FFF79CFFFCD1A06B62
:100FC00060B10FF295210165A06B00F0EBFE0028E7
:100FD0000ED0A06B016DBDE8F44008472046BDE887
:100FE000F24000F004BF204600F001FF0020206422
:100FF000F1BD206B012804F13D0340F08D80D00647
:1010000000D5F10640F18880002200922968009105
:10101000226850680090009920684269500641D5C6
:10102000A16B0868406880B20028E1D0A28D904290
:10103000DEDAE085C869B0F5807F2DD0216801F146
:101040000C0050E8001F226802F10C0521F48071A9
:1010500045E800100028F1D100F09DF8490800F1A2
:101060001405490045E800100028F5D100F093F878
:1010700000F1140521F0400145E800100028F5D1E9
:10108000202058700021216300F08BF800F091F8C7
:10109000FAD1A06B00F04AFEA18DE08D091A89B249
:1010A000204635E0A08DE18D411AE08D00281CBF5F
:1010B00088B200286ED02246106800F10C0454E873
:1010C000004F00F10C0624F4907446E8004000281C
:1010D000F2D1106800F1140454E8004F640800F1E4
:1010E0001406640046E800400028F2D12020587021
:1010F00000231363106800F10C0353E8003F00F174
:101100000C0523F01003FFF7F1FEF3D189B210466E
:10111000BDE8F44000F06CBE10062BD5310629D591
:101120001878212836D1A068B0F5805F04BF206907
:10113000002809D1206A01882A46C1F308015160BC
:10114000206A811C216205E0206A411C216222681C
:1011500000785060E08C401EE08480B2D0B92068F6
:10116000C16821F08001C1602068C16841F0400180
:10117000C160F1BD50060DD571060BD52846C1687A
:1011800021F04001C160204620211970BDE8F240E5
:1011900000F02FBEF1BD206800F1140151E8001FDE
:1011A0007047206800F10C0151E8001F00F10C03AA
:1011B000704721F0100143E8001000287047816259
:1011C0008285C28500F13C0100224A6022238B7097
:1011D0000A70016921B10168CA6842F48072CA606C
:1011E00001684A6942F001024A610068C16841F041
:1011F0002001C1600020704744E8002100297047A9
:10120000016801F10C0252E8002F01F10C04704753
:1012100010B5FFF7F5FF22F49072FFF7EDFFF8D15C
:1012200000F00BF8016B012901D100F073F82021C7
:1012300080F83E100022026310BD016801F1140223
:1012400052E8002F520801F11404520044E8002132
:101250000029F2D170470000806B0021C185002277
:10126000C28400F0C4BD00001CB590F83E102229D5
:101270004ED18168826AB1F5805F0AD1016969B98E
:1012800003685968C1F308011180826A911C816268
:101290000FE0002904BF0169002902D103685968E1
:1012A00003E00168496801F07F011170816A4A1CFE
:1012B0008262C18D491EC18589B239BB0168CA6885
:1012C00022F02002CA600168CA6822F48072CA60F3
:1012D00001684A69520852004A6100F02AF813D1A5
:1012E0000021016300F016F802681168CB0607D5EB
:1012F0000024009412680092036859680091009AD3
:10130000818D00F075FD01E0FEF768FF002016BD3D
:10131000022016BD026802F10C0151E8002F03689B
:1013200003F10C0422F0100244E800210029F1D15D
:101330007047202180F83E10026B012A704770B57B
:10134000044622681169E06821F4405101431161AB
:10135000D3682748A168034020690B4361690343B0
:10136000E0690B430343D3605169A06921F44071E4
:10137000014351611F498A421CBF1F48824202D16A
:1013800000F016FC01E000F00BFC62682568E469DF
:101390001921B4F5004FA1FB00016FF0630612D1D3
:1013A000D30F520000F026FD00F028F8F600323688
:1013B0006420B6FBF0F0420002F4F87202EB011276
:1013C00000F0070010E0930F920000F013FD00F012
:1013D00015F8360132366420B6FBF0F000F0F0026A
:1013E00002EB011200F00F008018A86070BD000031
:1013F000F369FFFF00100140001401406421B0FBBD
:10140000F1F106FB010670472DE9F84F0D46002665
:1014100079497A4A0F23044601202F68B04000EA38
:101420000708804540F0D5804FEA460C032707FAAD
:101430000CF76FEA070E6F6807F00309B9F1010FA7
:101440001CBF07F00307022F12D1A768D5F80C9034
:101450000EEA070709FA0CF949EA0707A760676867
:1014600027EA00006F68C7F30017B7403843606091
:10147000B0002F7907F00307032F21D0E768D5F8D4
:1014800008900EEA070709FA0CF949EA0707E7602E
:101490002F7907F00307022F12D1F70804EB870713
:1014A00000F01C09D7F820A003FA09FB2AEA0B0A6E
:1014B000D5F810B00BFA09F949EA0A09C7F82090E3
:1014C00027680EEA070E2F7907F0030707FA0CF7D3
:1014D00047EA0E0CC4F800C06F6817F4403F78D09C
:1014E0004FF0000ECDF800E04FEA960C176847F475
:1014F0008047176000F00C00D2F800E0404F0EF477
:10150000804ECDF800E0DDF800E057F82C7003FACB
:1015100000FE27EA0E0E3B4FBC4208BF002722D038
:10152000394FBC4208BF01271DD0384FBC4208BF0D
:10153000022718D0364FBC4208BF032713D0354FBF
:10154000BC4208BF04270ED0334FBC4208BF05275A
:1015500009D0324FBC4208BF062704D0304FBC42EE
:101560000CBF0727082707FA00F040EA0E00DFF853
:1015700090E04EF82C006FEA0800D1F808C06F68C0
:1015800000EA0C0CFF0248BF48EA0C0CC1F808C086
:10159000D1F80CC06F6800EA0C0CBF0248BF48EAE3
:1015A0000C0CC1F80CC0D1F804C06F6800EA0C0C38
:1015B000BF0348BF48EA0C0CC1F804C0D1F800C012
:1015C00000EA0C0C6868C00348BF48EA0C0CC1F87C
:1015D00000C0761C0F2E7FF61FAFBDE8F18F02B959
:1015E0000904816170470F4A136801460B421CBF12
:1015F0001160FEF7D7BD7047003C014044380240FF
:101600000838014000000240000402400008024087
:10161000000C02400010024000140240001802407A
:10162000001C0240143C014038B5044600F06CFB3D
:1016300014F1010F054602D004480178641800F047
:1016400063FB401BA042FAD331BD00BFC40200209F
:1016500080B50B48016841F400710160026842F4F2
:1016600080620260016841F480710160032000F033
:1016700016F80F2000F05EFC00F0B2FA002002BD68
:10168000003C02400901020002D4284881547047FE
:10169000274B02F00F021A4402F8041C7047254B36
:1016A00019684FF6FF020002114000F4E0600843A1
:1016B000214908431860704770B51E4B1C68C4F37D
:1016C00002230124C3F10705052D2EBF0F2504FABF
:1016D00005F56D1E1E1D072E34BF0023DB1E29409D
:1016E000994004FA03F3BDE870405B1E1A401143B1
:1016F000C8E7010007D4012200F01F010F4B8A4008
:10170000400943F820207047401EB0F1807F01D38C
:10171000012070470A490B4A48600023F0201070EE
:101720008B600720086000207047000000E400E0A4
:1017300018ED00E00CED00E00000FA0500E100E02B
:1017400010E000E023ED00E04AB1000011F8013B99
:10175000521E00F8013B1CBF11F8013BF8E770472F
:1017600010B5044610460A460146204600F002FC29
:10177000204610BD2DE9F843040016D02078DFF88C
:101780000463C10713D5B06800F00C00042807D02B
:10179000B06800F00C0008283DD1706841023AD5CD
:1017A0003068810303D56068002800F065812078E7
:1017B000B54F810719D5B06810F00C0F07D0B0688D
:1017C00000F00C0008285BD17068410258D43068E2
:1017D000810703D5E068012840F04E813168206917
:1017E00021F0F80141EAC00131602178080779D57C
:1017F0006069A649002868D001220A6000F084FAD6
:101800000546706F81076DD400F07EFA401B0228F8
:10181000F7D9032033E16068B0F5803F04D1306828
:1018200040F48030306011E0B0F5A02F306806D170
:1018300040F480203060316841F4803105E020F4CC
:1018400080303060316821F480213160606858B1A7
:1018500000F05AFA054630688103A8D400F054FA23
:10186000401B6528F7D3D4E700F04EFA05463068F0
:1018700081039CD500F048FA401B6528F7D3C8E7E0
:10188000E068A8B10121396000F03EFA05463068F1
:10189000810705D400F038FA401B0228F7D9B8E7D1
:1018A0003068216920F0F80040EAC10030609CE710
:1018B000386000F029FA05463168880795D500F0B0
:1018C00023FA401B0228F7D9A3E7086000F01CFAAE
:1018D0000546706F810705D500F016FA401B0228F7
:1018E000F7D996E72078410760D5306C0025C10014
:1018F0000BD4002000900125316C41F080513164FF
:10190000306C00F0805000900098DFF88481D8F8A7
:101910000000C10513D4D8F8000040F48070C8F866
:10192000000000F0F1F98146D8F80000C10506D4A6
:1019300000F0EAF9A0EB09000228F5D969E7A068F0
:10194000012805D00528306F06D140F0040030672B
:10195000306F40F0010005E0400840003067306F14
:1019600020F00400306741F28938A06860B100F0CF
:10197000CBF98146306F810713D400F0C5F9A0EB95
:1019800009004045F6D344E700F0BEF98146306FC8
:10199000810706D500F0B8F9A0EB09004045F6D361
:1019A00037E71DB1306C20F080503064A06900280A
:1019B00064D0B16801F00C0108293AD002282AD17C
:1019C0000020386600F0A0F905463068810105D591
:1019D00000F09AF9401B0228F7D91AE7E069216A5A
:1019E000626A0843A16A490840EA8210491E40EA37
:1019F0000140E16A40EA016070600120386600F051
:101A000083F904463068810138D400F07DF9001B69
:101A10000228F7D9FDE60020386600F075F9044683
:101A2000306881012AD500F06FF9001B0228F7D930
:101A3000EFE6012820D07068E26900F4800191424D
:101A400002BF00F03F01226A914201BF47F6C07118
:101A50000140626AB1EB821F0ED1A26A00F44031EC
:101A600001F580315208B1EB024F02BF00F0706007
:101A7000E16AB0EB016F01D0012000E00020BDE879
:101A8000F28300BF0038024000004742800E474208
:101A9000007000402DE9F04104000F4654D0494E3B
:101AA000306800F00700B84202D200F073F84BD162
:101AB0002068454D810712D5400703D5A96841F438
:101AC000E051A9602078010703D5A86840F4604080
:101AD000A860A968A06821F0F0010143A9602178FD
:101AE000C80729D56068012802D129688A0305E062
:101AF000022818BF032803D129688A0103D423E0F0
:101B000029688A0720D5A968890840EA8100A86069
:101B100000F0FAF88046A868616800F00C00B0EBAD
:101B2000810F09D000F0F0F8A0EB080041F28931F4
:101B30008842F0D303202BE0306800F00700874292
:101B400004D200F027F801D0012021E020784107DD
:101B500005D5AA68E06822F4E0520243AA60217821
:101B6000080706D5A968206921F4604141EAC0014F
:101B7000A96000F033FAAA681449154BC2F30312A6
:101B8000895CC84018601348006800F0D3F9002051
:101B9000BDE8F0813770316801F00701B942704744
:101BA0000B480D4A006813680C49C3F3822206E013
:101BB0000748094A006813680849C3F34232895C40
:101BC000C8407047003C024000380240F020000846
:101BD000D0020020CC020020083802407421000806
:101BE00081B00020009000224248416841F48041C9
:101BF0004160416801F480410091009900920368BE
:101C000043F080530360006800F08050009000981B
:101C100001B0704710B586B000F054F8216836481E
:101C2000814223D1002235480092016941F00071C0
:101C30000161016901F000710091009900924FF477
:101C4000407100F045F8092100F037F8002200212A
:101C50001320FFF731FD1320FFF74BFD0022002179
:101C60001420FFF729FD1420FFF743FD06B010BD37
:101C700010B586B000F026F82168224881421AD1BA
:101C800000221E480092416941F010014161416902
:101C900001F01001009100990092C02100F018F8A5
:101CA000072100F00AF8002200212520FFF704FD9B
:101CB0002520FFF71EFD06B010BD0591049201A975
:101CC000FFF7A2BB04461422002101A8FFF748BD7C
:101CD000036843F0020303600222006800F0020080
:101CE000009000980648019102920021039103227E
:101CF0007047000040380240006400403038024025
:101D0000000402400010014001484068704700BFD5
:101D1000C402002070477047704770477047704793
:101D2000704770477047704770477047F8B5044672
:101D300004F134056E6AFFF7E7FF0746687802286A
:101D400005D080212962002028700120F2BD206882
:101D5000016821F01601016000F036F8E8680028FB
:101D600004BF6869002801D000F03AF800F032F8AA
:101D700020680168CA070CD5FFF7C6FFC01B0628FC
:101D8000F6D32020286203216970002028700320E8
:101D9000F2BDA86A3F218140B16000200121697035
:101DA0002870F2BD90F83510022903D080224265D8
:101DB00001207047052180F835100068026852083C
:101DC00052000260002070472068416921F08001C4
:101DD0004161704720680168490849000160704707
:101DE0002068016821F00801016070470000704719
:101DF00070477047D3BBD9B1B2F5803F5BD2022A9E
:101E00001ED98C46B1FBF2F102FB11C31B0443EA5D
:101E10001043B3FBF2FC02FB1C3380B240EA0343E5
:101E2000B3FBF2F002FB103240EA0C400023704793
:101E3000022A05D98446B0FBF2F002FB10C27047BB
:101E40004AB105D100F0010249085FEA300070474D
:101E500000220023704700F0F1B80B0002000021BF
:101E600000207047F7D3002200237047904271EBA7
:101E7000030CF2D370B5B1FA81F4B3FA83F52C1BDD
:101E8000A340C4F1200532FA05F63343A2405FF0C7
:101E90000046E64002E05B085FEA3202841A71EB1A
:101EA000030524BF204629467641F4D302000B00E7
:101EB0003000002170BD70B5B1FA81F4B2FA82F53C
:101EC000C4F120046419B4F12006DAD3B2405FF003
:101ED0000044F440002502E052085FEA3303C61ACA
:101EE00071EB020E24BF3046714664416D41F3D35D
:101EF00002000B002000290070BD30B50168846825
:101F00004218416802EB5103C90703D54C4401E074
:101F1000491C08D19A4218BF12F9011B01D10C309B
:101F200030BD12F8015B002904F8015BF0D4491EB2
:101F3000F7D5EFE738B50D4D0D4B2A7804464FF431
:101F40007A711868B1FBF2F2B0FBF2F0FFF7DCFB3C
:101F500050B9102C08D2002221464FF0FF30FFF775
:101F6000ABFBAC60002032BD012032BDC4020020BA
:101F7000D002002062F30F2262F31F42401810F0DB
:101F8000030308D0C91A1FD3DB0748BF00F8012D8F
:101F900028BF20F8022D130030B41446154610391E
:101FA00028BF20E93C00FAD8490728BF20E90C00E7
:101FB00048BF40F8042D890028BF20F8022D48BFF3
:101FC00000F8012D30BC7047C91818BF00F8012D6A
:101FD000CB0728BF00F8012D7047000030B5144C26
:101FE000606800F00C00042802D0082802D01DE030
:101FF000104830BD226820680023410202F03F02F1
:1020000004D525680B49C5F3881003E020680A4908
:10201000C0F38810A1FB0001FFF7ECFE2168C1F3BB
:102020000141491C4900B0FBF1F030BD024830BD10
:102030000438024000127A000024F40070470000C7
:10204000FEE7FEE7FEE7FEE7FEE7704770477047F2
:1020500000F010B80120FFF7C6BA00E000BF034847
:10206000FEF7D1BD0248FEF753BF0000D4020020A6
:102070001C0000200248416802788A1842607047BC
:10208000C402002010B5074979441831064C7C443D
:10209000163404E00A68081D114488470146A1422D
:1020A000F8D110BD2C000000380000004EF6885119
:1020B000CEF20001086840F470000860BFF34F8F53
:1020C000BFF36F8F4FF00170E1EE100A7047000010
:1020D0002BFEFFFFDC01000060010000000000207B
:1020E0000248016841F470010160704788ED00E02A
:1020F00000000000000000000102030406070809B8
:1021000000F00DF8002801D0FFF7BCFFAFF300800E
:102110000020AFF30080FEF71FF900F002F8012065
:10212000704700F001B800000746384600F002F89A
:10213000FBE7000080B5AFF30080024A11001820D1
:10214000ABBEFBE7260002000548014603B4684623
:1021500080F30988AFF30080FFF7A8FFFFF7D0FFF7
:10216000A5EDF5FE0148804701480047E120000841
:10217000492100080000000001020304FFF7FEBF30
:10218000FFF7FEBFFFF7FEBFFFF7FEBFFFF7FEBF83
:10219000FFF7FEBFFFF7FEBFFFF7FEBFFFF7FEBF73
:1021A000FFF7FEBFFFF7FEBFFFF7FEBFFFF7FEBF63
:1021B000FFF7FEBFFFF7FEBFFFF7FEBFFFF7FEBF53
:1021C000FFF7FEBFFFF7FEBFFFF7FEBFFFF7FEBF43
:1021D000FFF7FEBFFFF7FEBFFFF7FEBFFFF7FEBF33
:1021E000FFF7FEBFFFF7FEBFFFF7FEBFFFF7FEBF23
:1021F000FFF7FEBFFFF7FEBFFFF7FEBFFFF7FEBF13
:10220000FFF7FEBFFFF7FEBFFFF7FEBFFFF7FEBF02
:10221000FFF7FEBFFFF7FEBFFFF7FEBFFFF7FEBFF2
:10222000FFF7FEBFFFF7FEBFFFF7FEBFFFF7FEBFE2
:10223000FFF7FEBFFFF7FEBFFFF7FEBFFFF7FEBFD2
:10224000FFF7FEBFFFF7FEBFFFF7FEBFFFF7FEBFC2
:10225000FFF7FEBFFFF7FEBFFFF7FEBFFFF7FEBFB2
:10226000FFF7FEBFFFF7FEBFFFF7FEBFFFF7FEBFA2
:10227000FFF7FEBFFFF7FEBFFFF7FEBFFFF7FEBF92
:10228000FFF7FEBFFFF7FEBFFFF7FEBFFFF7FEBF82
:10229000FFF7FEBFFFF7FEBFFFF7FEBFFFF7FEBF72
:1022A000FFF7FEBFFFF7FEBFFFF7FEBFFFF7FEBF62
:1022B0008100E7000F426F61726420332070726505
:1022C000737365640AAC0018426F61726420322037
:1022D00073656E6473207265717565737420746FB5
:1022E00020B5002743686F6F7365204C454420314B
:1022F000320A000043686F6F7365204C45442031FB
:10230000330A00005475726E204F4E0AFC000854C8
:1023100075726E204F46460AFD000F426F6172646F
:10232000203120707265737365640AAC000F426FD0
:10233000617264203220707265737365640AAC0048
:102340000F426F617264203420707265737365642C
:102350000AAC000001F9000010FC000124F4D700D1
:040000050800214985
:00000001FF
